:020000040800F2
:10000000803401201944000841440008434400089A
:100010004544000847440008494400080000000027
:100020000000000000000000000000000D25000896
:100030004B44000800000000A924000883260008A3
:1000400075440008794400087D4400088144000894
:100050008544000889440008614400088D44000874
:100060009144000895440008994400089D44000804
:10007000A1440008A5440008A9440008AD440008B4
:10008000B1440008B5440008B9440008BD44000864
:10009000C1440008C5440008C9440008CD44000814
:1000A000D1440008D5440008D9440008DD440008C4
:1000B000E1440008E5440008E9440008ED44000874
:1000C000F1440008F5440008F9440008FD44000824
:1000D0000145000805450008594400080945000885
:1000E0000D45000811450008154500081945000890
:1000F0001D45000821450008254500082945000840
:100100002D450008314500083545000839450008EF
:100110003D4500084145000845450008494500089F
:100120004D4500085145000855450008594500084F
:100130005D450008614500086545000869450008FF
:100140006D450008714500087545000879450008AF
:100150007D4500088145000885450008894500085F
:100160008D4500089145000895450008994500080F
:100170009D450008A1450008A5450008A9450008BF
:10018000AD450008B14500082DE9F04F82460FF259
:100190007060A5B017461D46D0E90023CDE91223B3
:1001A00004AE0020049170620DF1500800E04F444D
:1001B0000020ADF8020012AB4FF0FF3239460DF1CE
:1001C000020000F0ACFF8146B9F1010F08DA38787F
:1001D000B0F1010969EB09096FEA09004FEAD0792A
:1001E000BDF8020025280CBFA9F1010BCB46BBF1DD
:1001F000010F0EDB3C4614F8011B0498D047049015
:10020000002800F0F782706A401C7062BBF1010B9D
:10021000F1D1BDF80200252807D10020F06030613F
:100220007061B061F061306205E00028BFD1706A92
:10023000E2E240F0010017F8011F2029F9D023293C
:100240000DD02B2904D02D2906D030290AD00CE05E
:1002500040F0020080B2EEE740F00400FAE740F020
:100260000800F7E740F01000F4E72A290DD12968CB
:100270000A1D2A600968F162002904D5494240F04C
:100280000400F16280B27F1C13E00021F1620BE0F8
:10029000F16A6FF00043994205D001EB810302EB54
:1002A00043013039F1627F1C3A78A2F130010A290A
:1002B000EED339782E2903D04FF0FF31B1621EE022
:1002C00017F8011F2A2906D129680A1D2A607F1CF8
:1002D0000968B16213E00021B1620BE0B16A6FF00E
:1002E0000043994205D001EB810302EB4301303911
:1002F000B1627F1C3A78A2F130010A29EED3308630
:100300000FF20450397800F02BFF08B117F8010BF9
:100310008DF842009DF84200682802BF39786829AC
:10032000622005D06C2804BF38786C2803D1712076
:100330008DF842007F1C14A8B0603978B1F1250017
:1003400024D02038022840F2BF80133800F0E78024
:100350000B3800F07D81401E00F02681401E0228EF
:1003600040F2B280001F00F01F81401F00F081802A
:10037000401E00F0D480401E2AD0C01E0BD0801E2C
:1003800000F0CD80C01E00F0CA8081E1F068411C01
:10039000F160252186E19DF842006C28286813D081
:1003A000011D29600068B26A7060002A02D500F061
:1003B000E7FE07E0002100F0FFFE00281ABF716889
:1003C000401AB06A30616FE1011D2960026858E18E
:1003D0002868011D296000210068CDE902014FF065
:1003E0003C0E14A87060DDE9020111B908B9B26AC7
:1003F000CAB10206120FA0EB02123032AEF10103B5
:10040000D2B29E463A2AA8BF2732000903F8082034
:1004100040EA0170090908BF002804D0726814ABD3
:1004200073449A42E5D314A971447160CEF13C0043
:10043000B16A3061884207DA081AB0614FF6EF718D
:10044000308E084030862FE1002940F12D8196F84A
:10045000301001F01401102940F02681F16AF26891
:10046000891AB269891A081A0128C0F21D81B0617F
:100470001AE19DF84200622818D0682806D06A2840
:100480000BD06C2819D0712807D016E02868011D00
:1004900029600068716A018006E12A68101D2860E1
:1004A0001268706AC117C2E90001FDE02868011DE9
:1004B00029600068716A0170F6E02868011D2960F2
:1004C0000068716A0160EFE02868C01D20F0070035
:1004D000286000F108022A60D0E90023CDE9022358
:1004E000002B04D5F068421CF2602D220DE0308E06
:1004F000820704D5F068421CF2602B2205E0C00799
:1005000005D5F068421CF260202200F80820F0684F
:1005100014AA8018706002A800F092FBC4E09DF855
:1005200042006C2808BF2A6811D0712808BF2A68C9
:1005300002D02A686A280AD1D21D22F007022A6056
:10054000144604F108022A60D4E9002303E0131DD5
:100550002B6000231268CDE90223682808BF92B2FD
:1005600007D0622808BFD2B203D0742818BF7A28F7
:1005700002D10023CDE9022396F8300000075FD5B1
:10058000DDE90223002B08BF002A59D041F02000EA
:10059000782855D1F068302200F80820401C421C11
:1005A000F26000F808104BE09DF8420062280CD081
:1005B000682810D06A281AD06C2823D0712816D049
:1005C00074281FD07A280CD01CE02868021D2A60ED
:1005D00090F900201AE02868021D2A60B0F9002076
:1005E00014E02868021D2A60002302680FE02868D2
:1005F000C01D20F00700286000F108022A60D0E941
:10060000002304E02868021D2A600268D317CDE9A0
:100610000223002B04DAF068421CF2602D220DE068
:10062000308E820704D5F068421CF2602B2205E070
:10063000C00705D5F068421CF260202200F80820AF
:10064000F06814AA8018706002A800F051FA2BE03C
:100650009DF842006C2807D0F068411CF1602968C1
:100660000A1D2A6009681DE02868011D296001AA89
:100670000068ADF804000020ADF806004FF0FF3030
:10068000B06202A9504600F0C3F800280CD5B1E0D2
:10069000F068421CF260252200F8082021B1F068C1
:1006A000421CF26000F80810F06AF168401AB16963
:1006B000401A3169401AF169401A7169401A316A69
:1006C000A0EB010996F830007F1C400710D42020D1
:1006D0008DF80000002409E0012300AA02A9504679
:1006E00000F0F8FC002840F08580641C4C45F3DBEA
:1006F000F4680DF1500B0AE01BF8011B0498D04779
:100700000490002876D0706A401C7062641E002C31
:10071000F2D130208DF800004FF0000BB46909E0F1
:10072000012300AA02A9504600F0D4FC002861D1A0
:100730000BF1010BA345F3DB3469D6F804B00AE0F2
:100740001BF8011B0498D0470490002852D0706A0F
:10075000401C7062641E002CF2D130208DF8000025
:100760004FF0000BF46909E0012300AA02A95046EA
:1007700000F0B0FC00283DD10BF1010BA345F3DBE9
:1007800030697168746900EB010B09E01BF8011B0B
:100790000498D047049068B3706A401C7062641E6D
:1007A000002CF3D130208DF800004FF0000B346A9C
:1007B00008E0012300AA02A9504600F08BFCC8B94A
:1007C0000BF1010BA345F4DB96F8300040077FF5F1
:1007D000EFAC20208DF80000002400E0641C4C45A4
:1007E000BFF6E6AC012300AA02A9504600F072FC55
:1007F0000028F3D04FF0FF3025B0BDE8F08F0000A7
:100800000000000000000000686A6C747A4C000070
:100810002DE9F04F0E4695B0D6F830908346174636
:10082000B9F1000F48BF6FF0004900F0F1FC716BA7
:10083000401802900FF6CC02D2E90001CDE9030185
:1008400096F83800400702D40298412805D240208B
:100850000DF114080290002409E000F0DFFC5FEACB
:100860000008F8D14FF0FF303FE1A9EB0A09B9F1D8
:10087000010FC0F2B380398803AA0DF1010000F026
:1008800027FD5FEA000A00F1BC80388818B9BAF188
:10089000010A00F1B680D145C0F2A08070690299CA
:1008A0000AEB0002914280F08A8074634042316A10
:1008B000401AB169401A716A401AF169401AB16A66
:1008C000441A96F83800400710D420208DF8000014
:1008D000002509E0012300AA3146584600F0FAFB42
:1008E000002840F08E806D1CA542F3DB7369424600
:1008F0003146584600F0EEFB002840F08280302060
:100900008DF800000025306A019008E0012300AA5C
:100910003146584600F0DEFB002872D16D1C01986C
:100920008542F3DBB369F2683146584600F0D2FBEA
:10093000002866D130208DF800000025706A0190F3
:1009400008E0012300AA3146584600F0C3FB002806
:1009500057D16D1C01988542F3DBB069F168F369EA
:1009600042183146584600F0B5FB002849D13020E6
:100970008DF800000025B06A019008E0012300AA6C
:100980003146584600F0A6FB00283AD16D1C01986C
:100990008542F3DB96F8380040070ED520208DF80D
:1009A0000000002507E0012300AA3146584600F068
:1009B00091FB30BB6D1CA542F5DB002474615246EF
:1009C00070690DF10101404400F090FC70695044E1
:1009D000706137F8020B00287FF447AF706B7169C4
:1009E000401A316A401AB169401A716A401AF169B5
:1009F000401AB16A451A96F83800400710D400270B
:100A00000CE04FF0FF3469E0B0682021D847B060B7
:100A10000028F6D0F06A401CF0627F1CAF42F3DB86
:100A2000736942463146584600F054FB0028E8D12D
:100A3000376AA1460AE0B0683021D847B060002884
:100A4000DFD0F06A401CF06209F10109B945F2DB20
:100A5000B369F2683146584600F03CFB0028D0D11B
:100A6000776AA1460AE0B0683021D847B060002814
:100A7000C7D0F06A401CF06209F10109B945F2DB08
:100A8000B069F168F36942183146584600F022FB1C
:100A90000028B6D1B76AA1460AE0B0683021D8472D
:100AA000B0600028ADD0F06A401CF06209F1010985
:100AB000B945F2DB96F8380040070DD5002709E06C
:100AC000B0682021D847B06000289AD0F06A401C56
:100AD000F0627F1CAF42F3DB7461746305A880454C
:100AE0001CBF404600F03EFC204615B0BDE8F08F2C
:100AF0002DE9FA4E05460A462F696F2A08BF0824D9
:100B000005D041F02000782814BF0A241024D5E92C
:100B100000013C2681468B46642A18BF692A05D10C
:100B2000002903DAD9F100096BEB4B0BBBF1000F85
:100B300008BFB9F1000F0CD1286B50B9082C36D181
:100B400095F83800000732D530203B2687F83B0067
:100B50002DE0E31748465946224600F043FCA4FB2B
:100B60000023A9EB02023032A6F1010AD2B25646A6
:100B70003A2A03DB9DF80030513B9A180AF8072007
:100B800081465FEA010B08BFB9F1000F03D0E868A6
:100B9000F1198842DDD3082C09D195F838000007F7
:100BA00005D5F05D302802D0761E3020F055C6F114
:100BB0003C00A861F119E960296B884208DA081A3B
:100BC00028624FF6EF71288F08402887BDE8F38E22
:100BD00000290ED595F8381001F01401102908D11C
:100BE000696B6A69891A2A6A891A081A0128A8BFD2
:100BF0002862BDE8F38E2DE9D04306460F46144621
:100C00004FF00008DFF8349012E0E00707D54246C5
:100C10004B463046394600F05DFC06460F466410F0
:100C20004046494642464B4600F054FC80468946C1
:100C3000002CEAD130463946BDE8D083000024407C
:100C40002DE9F34F8BB0D0E90089006B01AF00288C
:100C500048BF062005D404BF41F02000672802D118
:100C600001200B99086340F2FF720B984168C1F3B1
:100C70000A50904220D1080302BF0B980068002858
:100C80000AD10B99032088619DF8300061381A2839
:100C900044D30FF2844109E00B99032088619DF849
:100CA000300061381A2836D30FF264410B98C068BF
:100CB000032200F01BFBF0E0012807DA0B9800F09C
:100CC000DAFC012802DB00230026DDE00B9A5268E3
:100CD00040F2FE3161F31E520B994A6040F2FE3140
:100CE000461A404649460022002300F0E5FC38BF82
:100CF00089F0004936B247F297507043414990FB62
:100D0000F1F636B2C6F10702012A0ADB404649462F
:100D1000FFF771FF27E00FF2F431C7E70FF2F4316C
:100D2000C4E757420024384DDFF8E0B09A4612E09D
:100D3000F80707D552465B462046294600F0CAFB15
:100D400004460D467F105046594652465B4600F019
:100D5000C1FB82468B46002FEAD1404649462246D7
:100D60002B4600F0C1FC80469DF8300040F0200585
:100D70008946662D0CBF06F10A0006200B99096B07
:100D80004718142FA8BF132730208DF804000DF149
:100D90000504DFF87CB0012F3CDB4046494600F0FB
:100DA000C7FD014604F1080204234FF00A0CB1FB11
:100DB000FCFC0CEB8C04A1EB4401303102F8011D6A
:100DC0000A21BCFBF1FE0EEB8E04ACEB4404303484
:100DD000714602F8014D5B1EE7D1083F02F108049D
:100DE000012FD8DB00F0BAFD02460B4640464946CB
:100DF00000F0C2FD00225B4600F06CFB8046894695
:100E0000CBE700BFA08601000000F03F00002440B7
:100E100084D797410DF10500201A0DF1050702E076
:100E2000401E761E7F1C39783029F9D0662D02D1FC
:100E300036B2711C03E0652D0CBF012100210B9A15
:100E4000126B8B181BB29842B8BF03461BB2190035
:100E50001AD4814204DAC85D3528A8BF392000DAE7
:100E60003020CA19521E00E05B1E12F80159491EBB
:100E70008542F9D0392802D1C85D401CC8550029E7
:100E800002D57F1E5B1C761C36B29DF830100B9885
:100E900000961BB23A4600F003F80DB0BDE8F08FA3
:100EA0002DE9F04786B006468A4690461D4600F07A
:100EB00040FE406A376B90F80090012D02DA012560
:100EC0000FF258284AF02000BDF93840662808BFC4
:100ED000641C13D0672840F0878014F1040F72DB84
:100EE000BC4270DA96F83800641C000702D4BD4298
:100EF000B8BF2F4624B23F1B48BF0027F068B16936
:100F000024B2012C21DA30234A1C0B54012F03DABE
:100F100096F83810090702D502F80090521CB26109
:100F2000E742B8BF7C4224B26142E7197162AF4226
:100F3000B8BF3D462DB2F5612A46B369414618183F
:100F400000F0D4F9781BB062ADE00818A54216DABB
:100F50002A46414600F0CAF9B1696918B161601BBF
:100F60007062012F03DA96F83800000705D5F068A3
:100F700001F80090F069401CF061B76293E02246EE
:100F8000414600F0B3F9B06920182D1B012F03DA98
:100F900096F83810090703D5F16800F80190401C55
:100FA0002DB2B061AF42B8BF3D46F3682DB22A46BC
:100FB00004EB0801C01800F099F9B0692818B06175
:100FC000781B70626FE0BD4204DA96F838100907AA
:100FD00058BF2F467F1E48BF0027BAF1670F0CBFCE
:100FE0004FF0650A4FF0450AB169F06818F8013B07
:100FF0000B544A1C012F05DA96F83810090758BF20
:10100000B26115D502F80090531CB361012F0FDBBC
:101010006D1E2DB2AF42B8BF3D462DB22A464146A5
:10102000181800F063F9B0692818B061781B706275
:10103000B069F16800EB0108200008F801AB03D4A7
:101040002B2008F8010B03E02D2108F8011B644256
:10105000002502AF08E00A2200A800F083FD0198F5
:1010600007F8010B6D1C009C21B20129F3DA022D57
:1010700006DA4AF02000652804BF302008F8010B8A
:101080004DB9302008F8010B07E06D1E02A8285C5E
:10109000303008F8010B012DF7DAB069F16840181B
:1010A000A8EB0000F06196F8380000F0140010285A
:1010B0000DD17069B1690818716A0818F1690818CA
:1010C000B16A0818716B8842BCBF081A306206B05A
:1010D000BDE8F087F8B504460D4616461F460020C9
:1010E00004E0E86A401CE8627F1E002047B116F861
:1010F000011BA868A047A8600028F2D14FF0FF307C
:10110000F2BD000000000000000000006E616E00F3
:101110004E414E00696E6600494E46003000F8B5FB
:1011200004460D4616461F4600F024FD3B46324657
:101130002946204601B0BDE8F04000F032BD50F82D
:10114000041B61B150F8042BD30744BFA9F101037C
:101150009A18002342F8043B091FFAD1EFE77047C1
:101160000278C9B28A421AB11CBF10F8012FF9E700
:1011700018BF002070470268531C0360117070474D
:1011800000F10103810704D010F8011B89B1810728
:10119000FAD10268B2F10131914311F0803F04BFEE
:1011A00050F8042FF6E710F8011B11B110F8011BDD
:1011B000FBE7C01A70470800C9B2830706D0521E69
:1011C00022D310F8013B9942F7D11FE0083A13D31C
:1011D00002F1040241EA012141EA014150F8043BD5
:1011E000121F21BF4B40A3F1013C2CEA030C1CF061
:1011F000803FF3D0C9B2001F083210F8013B521EE5
:1012000028BF91EA030FF8D818BF0120401E70478D
:1012100080B500F0AFFC012002BD000070B50546AE
:1012200005F10F00C408E400C046C046A54232D212
:10123000082C04D2082402E0083000F093F8234878
:10124000026811000CD1011D0A6802B31368A342A1
:1012500038BF111DF8D310E01D68A5420DD2191D2D
:101260000B68002BF8D11268011D00E0191D0B68F6
:1012700093420CD01D68A542F8D361B10D682A686D
:10128000A2F10803A3420AD26A680A6010E000F0E3
:10129000ABFC0028D0D1C046C046002070BD631909
:1012A0000B60121B0E686B6873600B681A602C6011
:1012B000096800291DBF4A68002A091D0021016034
:1012C000C046C04605F1080070BD0000083001208E
:1012D00070B504460D46164600F04CFC32462946D1
:1012E0002046BDE8704000F04FBC000062B38B07A1
:1012F00008D0521E11F8013B00F8013B00F0248099
:101300008B07F6D1830740F0208000BF103A07D347
:1013100030B4B1E83810103AA0E83810F9D230BC37
:10132000530724BFB1E80810A0E8081044BF51F8E3
:10133000043B40F8043BD20724BF31F8022B20F8CD
:10134000022B44BF0B7803707047083A07D3B1E80B
:101350000810083A40F8043B40F804CBF7D2530792
:10136000E4E7000000B9704710B5A0F10804206858
:10137000082833D310F0070F30D1C046C0461848B4
:10138000416809B18C4203D26160446017E019469C
:101390004B680BB1A342FAD30A6853189C421BD383
:1013A000A34204D123689A180A600C4607E04A68F1
:1013B0001AB123681B199A420ED362604C606168AF
:1013C00051B1226813198B4206D1002303600868CB
:1013D0008018206048686060C046C04610BD0000AC
:1013E000083001201B4213D1094236D12AB184466C
:1013F000B0FBF2F002FB10C2704700F00BBCFCD354
:101400000022002370470B000200002100207047DB
:10141000904271EB030CF6D370B5B1FA81F4B3FAD4
:1014200083F52C1BA340C4F1200532FA05F63343A3
:10143000A2405FF00046E64002E05B085FEA32024D
:10144000841A71EB030524BF204629467641F4D364
:1014500002000B003000002170BD012ACFD970B509
:10146000140C20D0B1FA81F4B2FA82F5C4F1200450
:101470006419B4F12006D6D3B2405FF00044F440C2
:10148000002502E052085FEA3303C61A71EB020E30
:1014900024BF3046714664416D41F3D302000B0016
:1014A0002000290070BD0C46B1FBF2F102FB114592
:1014B0002D0445EA1045B5FBF2F402FB145580B249
:1014C00040EA0545B5FBF2F002FB105240EA044049
:1014D00070BD0000B0B581EA030C0CF0004C40F286
:1014E000FF7515EA11541DBF15EA1357AC42AF4200
:1014F00039E0E41923EA455343F48013C90241F06B
:10150000004141EA505EC7021100A7FB0202002819
:101510004FF00000EEFB01204FF00001E3FB07213C
:1015200018BF42F00102401800214941E3FB0E01BF
:10153000A4F580640F0302D252004041494154F1A6
:1015400001046CDD470872F1004250F1000051EBDC
:101550000451A1F580115CBF41EA0C01B0BD4CEA19
:1015600005510020B0BD05EA1357AC4214BFAF428D
:1015700041E050EA410E1CBF52EA430E02E06146D0
:101580000020B0BD24423C441BD15FEA070EF6D0D8
:10159000090302BF01460020AEF1140EB1FA81F733
:1015A000AEEB070401FA07FE0C37C7F1200100FA81
:1015B00007F7C8404EEA000E23EA455343F4801370
:1015C000A2E733F00043B3FA83F704BFB2FA82FE16
:1015D00077440B3FE41BB7F1200E2FBF02FA0EF346
:1015E000BB40C7F1200E22FA0EFE38BF43EA0E03BD
:1015F000BA40641C82E750EA410E14BF52EA430E1F
:101600006FF000014FF4001717EB430F8ABF194624
:1016100017EB410FB5E74CEA05510020B0BDD4F1FE
:101620000104B4F120070FDAC4F12007520828BFE3
:1016300042F0010210FA07F501FA07F7E1BF2A4369
:10164000E0403843E1400FE0352C98DCC7F120043E
:1016500052EA400220FA07F218BF42F0010231FAC2
:1016600007F0A1400A43002172F1004250F100004E
:1016700051EB0C01B0BD30B4436803F000420121CE
:101680001B031B0B436004BF0368002B08D10DE054
:101690000368DD0F45EA440444605B000360491EB3
:1016A0004468E302F4D523031B0B436043681A43E9
:1016B0004260084630BC70474FF4001C1CEB410FE1
:1016C00094BF1CEB430F09E041EA030C50EA4C0CB9
:1016D00052EA0C0C03D2994208BF9042704714BFE3
:1016E0008B42824270470000F0B540F2FF7581EAFC
:1016F000030C0CF0004C15EA11541DBF15EA1357EA
:10170000AC42AF42E5E0BC41C1F31301C3F31303A4
:10171000801A994143F4801304D2641E4000494169
:1017200080185941C90241EA5051B1FBF3F603FB5D
:101730001611A2FB0675D7EBC020A94102D2761E76
:1017400080185941C90241EA5051B1FBF3FE03FB35
:101750001E11A2FB0E75D7EBC020A94103D2AEF13A
:10176000010E80185941890241EA9051760546EAF6
:101770008E2EB1FBF3F603FB1611A2FB0675D7EB19
:101780008020A94102D2761E80185941C90241EA3F
:1017900050514EEA060EB1FBF3F603FB1611A2FB05
:1017A0000675D7EBC020A94102D2761E8018594198
:1017B000C90241EA5051B1FBF3F703FB1711A2FB39
:1017C0000735D3EBC020A94167F100070CBF0042E9
:1017D00047F0010766F3D5274FEA1E31B80814F524
:1017E000806412DDBD0775F1004250EB0E5051EBE5
:1017F000045111F5801F5CBF41EA0C01F0BD4CF0B3
:101800007F6141F0E0410020F0BDBD076D0840EA76
:101810000E5041F48011D4F10104B4F120060ADA2B
:10182000C4F120060200E04001FA06F3E14018434B
:10183000B24015430EE0342C13DCC6F1200445EA17
:1018400040056D0820FA06F2154321FA06F0A14082
:101850000D43002175F1004250F1000051EB0C01E5
:10186000F0BD00205FEA0C01F0BDCFB992185B41DA
:10187000B3FA83F704BFB2FA82F6BF190B3FB7F190
:1018800020062FBF02FA06F3BB40C7F1200622FA5A
:1018900006F638BF3343BA401CB1E419641E33E77F
:1018A0007F4231F00041B1FA81F404BFB0FA80F612
:1018B000A4190B3CB4F120062FBF00FA06F1A14099
:1018C000C4F1200620FA06F638BF3143A0403C1B85
:1018D0001AE7AC421ABF05EA1357AF4212E050EACA
:1018E00041061CBF52EA4306BFE750EA41073046B3
:1018F00061461CBF41EA0551F0BD52EA430C08BFE6
:10190000C143F0BD00204FF4001616EB410F98BF05
:1019100016EB430F08BF16EB410F24BFC14305E090
:1019200016EB430F0CBF61464CEA0551F0BD0000B9
:10193000400D40EAC120490080F00D8040F0004099
:10194000490DA1F58061491C05D4D1F11F0154BF97
:10195000C840C01770474FF000007047010000BF3B
:1019600009D0B0FA80F18840C91CC1F5846109052D
:1019700001EBD0214005704770B44FF0004591EA6B
:10198000030F44BF6B4000F051B900BF841A71EBE4
:10199000030604D26E40001BB141121973414FF48B
:1019A000001C1CEB410F34BF7CEB430684E00C0DA4
:1019B000A4EB1356362E7DDC012E43DC45EAC3230F
:1019C00043EA525312BFD20292025B08240545EA51
:1019D000C12141EA5051D2EBC020994125D407D111
:1019E000B0FA80F610FA06F164D00020203608E044
:1019F000B1FA81F6B140C6F1200220FA02F2114399
:101A0000B0404FEAF474B4EB465434F001064FEAA8
:101A100074040AD8D6F50016760D04F00044F040A0
:101A200061FA06F25040F1404840C00A40EA415095
:101A300021F0004128BF5FEA500550F1000044EB5F
:101A4000D12137E045EAC323DB0A45EAC121C90AAF
:101A5000B6F120050EDD42EA0242120CC5F1200665
:101A600003FA06F6EB4042EA06056D42984161F141
:101A700000010DE062FA06F5F240554063FA06FCFB
:101A800082EA0C02F3405A406D42904161EB03013F
:101A900011F4801F05D1641E620502D06D00404123
:101AA000494121F48011430875F1004350F10000D1
:101AB00041EB045170BC70471CEB410F15D223F071
:101AC000004352EA43060BD04FEA4C0CBCEB410FEB
:101AD00004D80C0D661E342EB7DDEBE7801A994151
:101AE00050EA410608BF0021E4E708BF1CEB430FA2
:101AF00028BF6FF00001DDE780B5134800F000F962
:101B00000FF24801016041608160C1600161416183
:101B100081610FF23C0242628162C16201634163F2
:101B20000FF2300282630FF23402C2630164416437
:101B300001BD10B5044800F0E3F80446206808B978
:101B4000FFF7DAFF204610BD000000200000000073
:101B50002E00000066616C7365000000747275658C
:101B60000000000091FBF2F303FB1211C0E9003109
:101B70007047000080B5DFF80C0000F0C1F8806904
:101B800002BD00009000002030B430B90FF24800D0
:101B9000D0E90045C2E900451BE00170012030BCDE
:101BA000704730B431B90FF23800D0E90045C3E9CD
:101BB00000450EE01AB930BC6FF00100704708B163
:101BC0000A7802800978481E804130BCC043C00FAB
:101BD0007047002030BC704700000000000000008B
:101BE00000000000000000000749086808B100205C
:101BF00070470648C008C00008600549C908C90008
:101C0000091A0160704700BF683001208734012045
:101C1000803601207047000070B44FF0004591EA13
:101C2000030C44BF6B40FFF7B1BE00BF841A71EBD9
:101C3000030603D2001BB141121973414FF4001C7B
:101C40001CEB410F34BF7CEB430443E00C0DA4EBD1
:101C50001356352E50DC45EAC323DB0A45EAC12181
:101C6000C912B6F120050DDD63FA05F6EB4086EAF0
:101C70000305124218BF45F00105C01851F10001DB
:101C80000CD213E062FA06F5F2405540F3415A4097
:101C9000B340F3405A408018594107D349085FEADE
:101CA00030005FEA350528BF45F0010501F58011D8
:101CB000420875F1004250F1000041EB045170BC44
:101CC0004FF4001C1CEB410F38BF70470020090D7A
:101CD000090570471CEB410F10D252EA43060BD0A6
:101CE000BCEB410F05D80C0DAB43661E342EB5DDA1
:101CF00002E0AB438018594170BC704770BC70471C
:101D0000704700002DE9FA4F83B0040015000E9EC5
:101D10000F9FDDF84080DDF844902000002802D1BC
:101D200000F0EAFBFEE7052E02D300F0E5FBFEE73C
:101D30004146280080B200F053FB8246BAF1000F02
:101D400075D0ADB2DAF8300010EB8500001F834685
:101D50005FEADB0B5FEACB0B1BF00700002802D029
:101D600000F0CAFBFEE7ADB200954B463200039986
:101D7000504600F091FA049A2100584600F0ECFB1E
:101D8000CAF80000002F01D0C7F800A000F057FCEF
:101D9000DFF8D0040068401CDFF8C8140860DFF8E2
:101DA000F404006800280BD1DFF8E804C0F800A0B4
:101DB000DFF8B0040068012811D100F09BFA0EE0B2
:101DC000DFF8A4040068002809D1DFF8C80400681F
:101DD000C06A864203D3DFF8BC04C0F800A0DFF875
:101DE0008C040068401CDFF884140860DFF87C0471
:101DF0000068CAF84000DFF878040068DAF82C10B0
:101E0000884204D2DAF82C00DFF8641408601AF172
:101E10000401DAF82C001422DFF8583402FB0030F9
:101E200000F072FC0120019000F016FC02E05FF06F
:101E3000FF300190019801280CD1DFF82C040068D4
:101E4000002807D0DFF84C040068C06AB04201D215
:101E500000F0ECFB019805B0BDE8F08F2DE9F047EC
:101E600004000D005FF00008002C02D100F044FBDC
:101E7000FEE7002D02D100F03FFBFEE7DFF85C0536
:101E80000068002802D000F037FBFEE700F057F8AA
:101E9000DFF8A804D0F80090206828180600206811
:101EA000814507D2206886420BD2B14509D2012074
:101EB000804606E02068864201D3B14501D2012068
:101EC00080462660B8F1000F09D0DFF8C80300682B
:101ED000001D00F042FC8246300000F05FFA00F086
:101EE00036F80700002F01D100F0A0FBBDE8F08715
:101EF0001FB50020039000200290002001900020D8
:101F0000009000238222DFF868150FF26D30FFF792
:101F1000F9FE0400012C0CD100F0EEFA0120DFF8EC
:101F2000481308600020DFF84C15086000F032FB11
:101F300004E0002C02D100F0DFFAFEE71FBDDFF85D
:101F40009C040068401CDFF894140860704770B56A
:101F50000025DFF888040068002802D100F0CCFAE0
:101F6000FEE700F06CFBDFF874040068401EDFF849
:101F70006C140860DFF864040068002858D1DFF8AA
:101F8000E4020068002853D0DFF8E004006800286D
:101F90002BD0DFF8D804C068C068040014F1180022
:101FA00000F0DBFB0600201D00F0D7FBDFF8C012BD
:101FB0000968E26A914203D2E06ADFF8B41208606D
:101FC000211DE06A1422DFF8AC3202FB003000F081
:101FD0009BFBE06ADFF8BC120968C96A8842D3D368
:101FE0000120DFF894140860CEE7DFF89004006861
:101FF000002814D0DFF88404006800280FD000F017
:1020000026F8002803D00120DFF86C140860DFF800
:102010006C040068401EDFF864140860EAE7DFF82B
:1020200058040068012803D10120050000F0FEFAE1
:1020300000F012FB280070BD10B500F000FBDFF8C7
:1020400034040068040000F007FB200010BD2DE9F7
:10205000F0410026DFF884030068002840F0888003
:10206000DFF8D8020068401CDFF8D0120860DFF803
:10207000CC020768002F1FD1DFF808040068006851
:10208000002802D000F038FAFEE7DFF8F803006815
:102090008046DFF8F4030068DFF8E8130860DFF833
:1020A000E803C0F80080DFF8E4030068401CDFF8B4
:1020B000DC13086000F0C0F9DFF8D4030068874241
:1020C00040D3DFF8C00300680068002805D15FF046
:1020D000FF30DFF8BC13086034E0DFF8A8030068C5
:1020E000C068C068040060680500AF4203D2DFF832
:1020F000A003056026E0201D00F02FFBA16A002947
:1021000003D014F1180000F028FBDFF86401006828
:10211000E16A884203D2E06ADFF854110860211DA9
:10212000E06A1422DFF84C3102FB003000F0ECFAD8
:10213000E06ADFF860110968C96A8842C1D30120EA
:102140000600BEE7DFF84C010068C06A1421DFF822
:10215000242101FB00200068022801D30120060091
:10216000DFF81803006800280BD100F07FFB08E0BF
:10217000DFF808030068401CDFF80013086000F077
:1021800075FBDFF8F4020068002801D0012006008A
:102190003000BDE8F08180B5DFF84002006800281B
:1021A00004D00120DFF8D012086059E00020DFF8E9
:1021B000C8120860DFF8AC020068006BDFF8A412F8
:1021C00009680968884209D3DFF89802006810F1AD
:1021D0003401DFF89002006800F04BFB1422DFF8B6
:1021E000B412DFF880020068006B00F049FB0028A1
:1021F00009D0DFF87002006810F13401DFF86402E2
:10220000006800F036FB1A4800681421194A01FBE7
:102210000020006800280CD115480068002802D171
:1022200000F06AF9FEE712480068401E1049086095
:10223000E9E70F49096814220E4B02FB013108003F
:10224000416849684160416810F10802914202D139
:102250004168496841604068C068DFF8081208605A
:1022600001BD00003C3001204830012058300120E1
:1022700044300120B82E012010B5040000F060F8B1
:1022800079480068022801D300F0D0F900F0F0FA94
:10229000F4E700002C3001202DE9F04104000D008E
:1022A00016001F0000208046B8F10A0F0CD218F863
:1022B000050018EB040181F8340018F80500002827
:1022C00002D018F10108EFE7002084F83D00052E48
:1022D00001D304200600E662201D00F012FA14F17A
:1022E000180000F00EFA2461D6F10500A0616462C6
:1022F000BDE8F08110B500200400052C07D21420A1
:10230000594900FB041000F0EDF9641CF5E7624840
:1023100000F0E8F9614800F0E5F9544800F0E2F90E
:102320005F4800F0DFF94E4800F0DCF95A485549A3
:1023300008605A485449086010BD00004030012030
:1023400070B558480068002827D0FFF7F8FD5448BA
:102350000068002801D1012400E00024E4B2FFF766
:10236000F6FD002CEDD100F06AF94D48C068C06858
:102370000500281D00F0F1F9060041480068401EE4
:102380003F49086047480068401E4649086000F021
:1023900063F9280000F047F8D3E770BD10B50400DA
:1023A00030480068446033480068844207D22D48B2
:1023B0000068011D3448006800F0B2F90CE02948BB
:1023C0000068011D2F48006800F0AAF93048006835
:1023D000844201D22E48046010BD00005C30012010
:1023E00070B504000D00482000F07CFA0600002EB5
:1023F00017D0002D04D1A4B2A00000F073FA00E0C1
:1024000028003063306B002805D1300000F0CFFA8F
:102410000020060005E0A4B2A200A521306B00F068
:102420000BFB300070BD10B50400206B00F0BFFA4C
:10243000200000F0BCFA10BD1249096809680029A3
:1024400004D15FF0FF31124A116007E00D490968BD
:10245000C968C968080041680D4A116070470000EA
:10246000AC2F01202C300120B82E0120842F012018
:102470006C44000840300120503001204C300120D5
:102480003C30012030300120343001205430012014
:1024900018010020E44300081C2F0120702F0120A8
:1024A000982F012038300120EFF30980BFF36F8FA0
:1024B000264B1A681EF0100F08BF20ED108A20E985
:1024C000F04F106008B44FF0500080F31188FFF710
:1024D00062FE4FF0000080F3118808BC196808689C
:1024E000B0E8F04F1EF0100F08BFB0EC108A80F378
:1024F0000988BFF36F8F7047EFF311804FF05001E1
:1025000081F31188704780F3118870470F4B196869
:102510000868B0E8F04F80F30988BFF36F8F4FF081
:10252000000080F31188704709480068006880F354
:10253000088862B6BFF34F8FBFF36F8F00DFDFF8FD
:102540001400016841F47001016070472C300120D3
:1025500008ED00E088ED00E0001F5FF0807303608D
:10256000001F0160001F0FF21503036014380260A2
:10257000001F7FF0020303602038704780B54F488A
:10258000006810F1010F02D0FFF7B6FFFEE7FFF77A
:10259000B3FFFEE700B583B0494801780191FF2100
:1025A000017001788DF800109DF8001011F05001B5
:1025B000444A11700721444A11609DF80010090631
:1025C0000AD541490968491E3F4A11609DF800102B
:1025D00049008DF80010F0E73B49096809023A4AC2
:1025E00011603949096811F4E061374A11600199B5
:1025F00001703648006850F4700034490860334870
:10260000006850F070403149086000F04AF800203E
:102610002A490860FFF793FF2D48006850F04040BA
:102620002B490860FFF780FF00200EBD5FF080504F
:1026300028490860BFF34F8FBFF36F8F704780B595
:10264000FFF75AFF1D480068401C1C490860BFF393
:102650004F8FBFF36F8F01BD80B518480068002809
:1026600002D1FFF749FFFEE714480068401E1349F6
:10267000086012480068002802D10020FFF743FFDD
:1026800001BD10B5FFF738FF0400FFF7E0FC00289C
:1026900003D05FF080500F4908600020FFF733FF40
:1026A00010BD0D4800684FF47A71B0FBF1F0401E88
:1026B0000A49086007200A49086070471001002095
:1026C00000E400E0763001202030012020ED00E021
:1026D00034EF00E004ED00E01401002014E000E01D
:1026E00010E000E010F1080141605FF0FF3181600F
:1026F00010F10801C16010F10801016100210160C1
:10270000704700210161704742684A6093688B609E
:10271000936859609160086103685B1C03607047AF
:1027200010B40B6813F1010F02D10469220008E014
:1027300010F10804220054682468A34201D35268AF
:10274000F9E754684C604C68A1608A605160086188
:102750000468641C046010BC7047010008698A6842
:102760004B689A604A688B685A6042688A4201D115
:102770008A68426000220A610268521E0260006894
:102780007047000000B585B000F060F900200390AC
:1027900000200290002001900120009000234FF4BF
:1027A000C17228492848FFF7ADFA002003900020A5
:1027B00002900020019001200090002382222349F2
:1027C0002348FFF79FFA002003900020029000208A
:1027D00001900120009000234FF4C1721D491E4852
:1027E000FFF790FA00200390002002900020019053
:1027F000012000900023822218491948FFF782FA2D
:102800000020039000200290002001900120009001
:10281000002382220F491048FFF774FA002003902A
:1028200000200290002001900120009000238222CD
:102830000C490D48FFF766FAFFF75AFB002005B078
:1028400000BD000028440008692A0008644400080C
:10285000D32D00083444000841330008F843000831
:102860004530000808440008913100087047FEE731
:10287000704738B504000D00FFF73EFEFEE700008C
:102880000300002013F0030F09D0521E22BF13F8DB
:10289000010B11F801CBB0EB0C00F3D07047121F05
:1028A00022BF53F8040B51F804CB6045F7D0121D3A
:1028B0000AD200BA9CFA8CFCB0EB0C0038BF6FF067
:1028C000000088BF01207047521E22BF13F8010B81
:1028D00011F801CBB0EB0C00F6D0521C08BF10462B
:1028E000704700002DE9F04104005FF00008FFF799
:1028F00026FB4A480068002804D100F07AF801203D
:1029000046490860002C0BD04548008814FA80F432
:1029100014F0070F04D014F1080014F00701441A52
:10292000002C3AD03F48844237D23F4806003E4808
:10293000006805006868A04205D22868002802D017
:102940002E002D68F6E73948854226D034480088A5
:10295000316840188046286830603148008840005F
:102960006968091B884212D2601907006868001B59
:1029700078606C607A6811002B4A10000268526817
:102980008A4201D20068F9E702683A600760284885
:1029900000686968401A26490860FFF7D8FAB8F15C
:1029A000000F01D1FFF763FF4046BDE8F081F8B5A5
:1029B00004002600002C1BD01948008840428619CC
:1029C0003500FFF7BCFA69680F0017490800016875
:1029D0004968B94201D20068F9E7016829600560D9
:1029E000134800686968081811490860FFF7AFFAD2
:1029F000F1BD104AD208D20011000B4A116000222A
:102A0000094B5A60074A094B5A600022074B1A606B
:102A10000800044A4260054A0260704714300120F1
:102A2000B6110008F82B0100F82F0120003001201A
:102A30000C0100202801002010B5044610460A466B
:102A40000146204600F074F8204610BD80B500F025
:102A5000AAF800F00FF900F0FBF900F026FB00F0F7
:102A60003DFB00F042FC01BD10B58AB0040000F04F
:102A700093F8244908602448007822490968C9B2BB
:102A80008842F4D021480078012835D120480078C8
:102A9000012831D11F49002000F0A1FD1E4900206E
:102AA00000F035FE1D48008808901D4890ED000B91
:102AB0008DED060B174880780490164840780390F7
:102AC00014480078029014488078019012484078A9
:102AD00000901148C37810480078124911EB80002B
:102AE000021F1149114800F065FE1048FEF748FB2F
:102AF00001000E4800F06EFA0248006802490870B2
:102B0000B5E70000183001201C01002072300120C0
:102B10007330012024300120283001207030012042
:102B2000F02F01207C430008D8420008F02D01203E
:102B300062F30F2262F31F42401810F0030308D023
:102B4000C91A1FD3DB0748BF00F8012D28BF20F8A2
:102B5000022D130030B414461546103928BF20E961
:102B60003C00FAD8490728BF20E90C0048BF40F8CC
:102B7000042D890028BF20F8022D48BF00F8012D40
:102B800030BC7047C91818BF00F8012DCB0728BF0B
:102B900000F8012D704700003148006831490840B5
:102BA00010F07F00704780B501215FF0805000F089
:102BB000CFFE012000F042FF012000F0B6FE002011
:102BC00000F0B3FE012000F00FFE612000F0EDFEEA
:102BD0000028FAD04FF4007000F08BFE012000F0C6
:102BE000A0FE00F056FC00201F4908607F201E490F
:102BF0004860FF201C4988601B4800F0D9FB002872
:102C000000D1FEE7194800F0E1FC00201749C87028
:102C10002320164908705920144948705020134940
:102C200088701249012000F069FC002800D1FEE7FD
:102C30000F4800F063FD05200D49087012200C4973
:102C4000487015200A49C870312009498870084920
:102C5000012000F0EDFC002800D1FEE701BD0000DE
:102C6000002800407F7F7F00DC2F012024300120DE
:102C70002830012000B58BB004A800F019FF00A88F
:102C800000F036FF01214FF4807000F070FE00F07C
:102C9000DBFE002000900020019000208DF8140041
:102CA00000208DF81500002007900020089000A853
:102CB00000F00DFF04A9524800F0D2FE0121504857
:102CC00000F01FFF012000F029FF00230122102146
:102CD0004B4800F034FF4B48504908600BB000BD32
:102CE00080B5474800F0A6FF0221454800F0B2FF3A
:102CF0000028F9D0424800F0A2FF02BD10B52DED2A
:102D0000028B0400A4B22000FEF728FE3E4A3F4B8F
:102D1000FEF7E0FB3E4AC2E900013D48D0E900234E
:102D200000203C49FEF778FF00223B4BFEF7DCFC1D
:102D300000223F4BFEF770FF41EC180BB0EE480A43
:102D4000F0EE680A00F00CF8B0EE408AF0EE608A0F
:102D5000B0EE480AF0EE680ABDEC028B10BD000030
:102D600010B52DED028BB0EE408AF0EE608A9FED3B
:102D70002C0B2A48006880ED008B2848006808303A
:102D800026490860284825490968884205D21D4817
:102D90002249086001202549087000200400082C01
:102DA0000CDA53EC102B174810EBC4004168006894
:102DB000FEF732FF41EC100B641CF0E751EC100BF6
:102DC00000221C4BFEF790FC41EC100BBDEC028B7B
:102DD00010BD70B582B004007D26FFF72DF900907C
:102DE000310000A8FFF73AF8FFF77AFF0500280046
:102DF00080B2FFF783FF104880ED000BF0E7000082
:102E000000200140302F0120177771177771E73FBD
:102E1000E82F012000C087C00000044010300120CE
:102E20000000000000000000702F0120723001201F
:102E30000000394000002040F02F0120012110F057
:102E40001F02914040B24209734B43F82210704771
:102E500000B583B001215FF4003000F079FD01215D
:102E6000012000F066FD0121012000F062FD00A8B4
:102E700000F053FF02208DF804000420009002208F
:102E80008DF8050000208DF8060001208DF8070060
:102E900000A9624800F0ECFE0820009000A95F48FD
:102EA00000F0E6FE072202215C4800F04FFF0722F7
:102EB00003215A4800F04AFF594800F0F3FF0C2064
:102EC000574948815FF4E1305549086054495548F5
:102ED00000F06AFF00205449087054485249C1F874
:102EE000CC00012240F225514E4800F0FBFF262085
:102EF000FFF7A4FF01214B4800F0E2FF07BD10B52A
:102F000040F22661474801F018F800281ED040F230
:102F10002661444801F048F8454800684549096879
:102F2000884209D3002240F226613E4800F0DAFFD1
:102F30000020414908704CE03D48006800783F4956
:102F400008803B480068401C3949086040F2255120
:102F5000344800F0F2FF00283BD040F225513148C0
:102F600001F022F82F4800F0B9FF0400344800783F
:102F700000282ED12C48D0F8CC0004702A480078C4
:102F8000002809D12848D0F8CC000078402802D188
:102F90000120254908701CE02348D0F8CC000078B7
:102FA0000A280FD101202649087000201E49087008
:102FB00000201D49D1F8CC1048701C481A49C1F8AE
:102FC000CC0006E01848D0F8CC00401C1649C1F8E7
:102FD000CC0010BDF8B504000D00012016490870A2
:102FE00040F226610F4800F0DFFF2600701C1049F8
:102FF0000860A8190F49086030780700FFB20F4831
:103000000780012240F22661064800F06BFF0A4863
:1030100000780128FBD0F1BD00E100E00000024093
:10302000C02F012000440040202D0120212D01202F
:1030300060300120643001207830012004440040D9
:103040007730012010B50400FFF7F9FA4FF47A70D9
:103050005349088000205349088051480088411E88
:103060004F4A118080B200280BD001214E4800F059
:1030700060FE0028F1D04B480088401C4949088078
:10308000EBE748480088B0F52F7F0BDD012146486B
:1030900000F04FFE0028F9D14448007890F001007C
:1030A00042490870FFF7D8FACEE700B583B0012196
:1030B000012000F03EFC00208DF8040000208DF877
:1030C00007000120009000208DF8050000A9364877
:1030D00000F0CEFD01203549087007BD00B583B072
:1030E0000121082000F025FC4FF4704000900120E1
:1030F0008DF8040000208DF8060001208DF80700EF
:1031000002208DF8050000A9294800F0B1FD082033
:10311000009000A9264800F0ABFD07BD10B50400E3
:10312000A4B2002C33D0A4B2322094FBF0F0214999
:1031300008700020204908701E480078002805D03B
:1031400002280BD006D303280CD00FE000201A4928
:1031500008700EE00120184908700AE003201649A3
:10316000087006E007201449087002E00F20124999
:103170000870FFF7C1F94FF47040104908800E48FD
:10318000007800030E4908800020FFF7BCF910BD4D
:1031900010B504000B480088FFF7C0FFFAE70000F5
:1031A0006E3001206C30012000000240733001209D
:1031B000000C024074300120753001201A0C0240CE
:1031C000180C02407030012010B50400002169483D
:1031D00000F040FF0221674800F058FF6648046095
:1031E0000020664908600121624800F033FF64480E
:1031F00000888007FBD500215E4800F02BFF10BD42
:1032000080B500215B4800F025FF00205B49086085
:103210004CF250305B4908601F21564800F036FFE1
:103220000121544800F016FF01BD40205649088096
:103230007047402055490880704710B5FFF7F5FFEB
:103240000220FFF7C1FFFFF7F4FF0A20FFF7BCFFE2
:10325000FFF7EBFFFFF7D4FF4D480068000605D4E9
:10326000474800884007F7D500201BE0FFF7C8FF5C
:1032700047480068000605D5414800884007F7D553
:1032800000200FE03D48006842490860414800685E
:103290003A21B0FBF1F00400394800884007FBD523
:1032A000200080B210BD1FB50121042000F050FBAA
:1032B000394800F0C0FE4FF6FF7037494860364984
:1032C0002C4800F083FE00A800F093FA029840001A
:1032D0003249B0FBF1F080B2401E0400012221000F
:1032E00089B2244800F0B3FE1FBD00B583B00121B0
:1032F000022000F01EFB0121022000F01AFB8020BA
:10330000009000208DF8040003208DF805000020B7
:103310008DF8060001208DF8070000A9204800F074
:10332000A7FC4020009001208DF8040002208DF8B9
:10333000070000A91A4800F09BFCFFF7B4FF07BD87
:1033400038B50400FA25FEF777FE0090FFF777F90D
:10335000082014490880FFF770FF134908800820EF
:1033600012490880FFF778F9290000A8FEF776FDDA
:10337000ECE700000008004034080040240800404A
:1033800010080040380800401A04024018040240A7
:10339000100402401C300120D02F012040420F00B9
:1033A00000040240180C0240703001201A0C024048
:1033B00038B504000025CA20DFF8B0130860532098
:1033C000DFF8A813086000F02DF8002802D10020D3
:1033D000050020E0DFF88C03006830F04000DFF8E3
:1033E00084130860DFF87C03006821680843DFF875
:1033F00074130860A068DFF870130860DFF86803D2
:103400000068616850EA0140DFF85C13086000F072
:1034100037F801200500FF20DFF85013086028006E
:10342000C0B232BD81B00020009000200021DFF842
:103430004023126852061ED45FF0FF32DFF83033AB
:103440001A60DFF82C23126812F040021100009A73
:10345000521C0092009AB2F5803F01D00029F0D0B2
:10346000DFF80C231268520602D50122100004E096
:103470000022100001E001221000C0B201B070472C
:10348000DFF8F002006830F08000DFF8E812086032
:10349000704781B00020009000200021CA22DFF890
:1034A000CC321A605322DFF8C4321A60DFF8C0222F
:1034B000126832F0A002DFF8B8321A60DFF8B022EA
:1034C000126812F020021100009A521C0092009A19
:1034D000B2F5003F01D00029F0D0DFF89422126845
:1034E000920602D50122100001E000221000FF2206
:1034F000DFF878321A60C0B201B070472DE9F041B0
:1035000004000D0000260027002C07D1DFF854022C
:103510000068400601D40020E8700BE0DFF84402A8
:103520000068400604D5287800F037F9060001E06D
:103530000020E870002C0BD028786978090251EA45
:103540000040A9780843E97850EA0140060015E0F8
:10355000287800F017F98046687800F013F95FFAD0
:1035600088F8C0B2000250EA0848A87800F00AF9CA
:1035700050EA0800E97850EA01400600CA20DFF866
:10358000F81108605320DFF8F0110860FFF74AFFD8
:10359000002802D10020070010E0DFF8E0013040F1
:1035A000DFF8B8110860FFF76BFFFFF772FF002824
:1035B00002D10020070001E001200700FF20DFF812
:1035C000B81108603800C0B2BDE8F0810021C170B8
:1035D000002101700021417000218170704770B599
:1035E00004000D000026DFF874010068DFF88C117C
:1035F00008400600300C10F03F002870300A10F030
:103600007F00687016F07F00A870300C10F040004A
:10361000E870002C0BD1287800F0BFF8287068788B
:1036200000F0BBF86870A87800F0B7F8A87070BD1B
:103630002DE9F04104000D0000260027002C07D1E1
:103640006878C00604D5687810F0EF000A3068701A
:10365000002C07D0687800F0A0F80600A87800F0E9
:103660009CF80600002C0BD0E8786978090251EA32
:103670000040A9780843297850EA4130060015E057
:10368000E87800F07FF88046687800F07BF85FFA11
:1036900088F8C0B2000250EA0848A87800F072F832
:1036A00050EA0800297850EA41300600CA20DFF8C5
:1036B000C81008605320DFF8C0100860FFF7B2FEA2
:1036C000002802D10020070010E0DFF8B4003040ED
:1036D000DFF88C100860FFF7D3FEFFF7DAFE002852
:1036E00002D10020070001E001200700FF20DFF8E1
:1036F000881008603800C0B2BDE8F0810121017077
:1037000001218170012141700021C170704770B5A5
:1037100004000D000026DFF848000068DFF86010A4
:1037200008400600300CE870300A10F01F00687086
:1037300016F03F00A870700B10F007002870002CE6
:103740000BD1E87800F029F8E870687800F025F8E7
:103750006870A87800F021F8A87070BD00280040BB
:103760000428004008280040102800402428004079
:103770000C2800400C280040242800407F7F7F0058
:103780003FFFFF000021C0B20A2802DB491C0A38B3
:10379000F9E750EA0110C0B270470021C0B2020937
:1037A0000A2312FB03F2110010F00F004018C0B200
:1037B000704700000CB41CB5044604A801900A46EA
:1037C000009401AB00A9074878441830FCF7DCFCF2
:1037D000009A0021117000285CBF0098001B16BCE5
:1037E0005DF80CFB93D9FFFFC0B2DFF82012086030
:1037F0007047F0B400210022002302240025022695
:10380000DFF8FC713F6817F00C0739000F00002F3C
:1038100004D0042F06D0082F08D03CE0DFF8F07168
:1038200007603BE0DFF8EC71076037E0DFF8D47148
:103830003F68C7F380573D00DFF8C8713F6817F055
:103840003F073E00002D0DD0DFF8C871B7FBF6F73B
:10385000DFF8B0C1DCF800C0CCF3881C0CFB07F724
:103860003B000CE0DFF8A871B7FBF6F7DFF894C176
:10387000DCF800C0CCF3881C0CFB07F73B00DFF83A
:1038800084713F68C7F301477F1C7F003C00B3FB96
:10389000F4F7076002E0DFF878710760DFF8607125
:1038A0003F6817F0F00739000909DFF86C71CF5D48
:1038B0003A000768D7404760DFF844713F6817F463
:1038C000E0573900890ADFF85071CF5D3A00476848
:1038D000D74087604A4F3F6817F460473900490B6B
:1038E000DFF83471CF5D3A004768D740C760F0BC5D
:1038F0007047002110F44072B2F5407F09D1404A70
:103900001268110031F4F811444A024011433C4A54
:1039100011603D4A126803051B0D1A433A4B1A60A9
:103920007047C0B23E4908607047C0B23D49086068
:103930007047C9B2002905D03B4A126802433A4B8E
:103940001A6004E0384A12688243374B1A607047A5
:10395000C9B2002905D0354A12680243334B1A60B8
:1039600004E0324A12688243304B1A607047C9B291
:10397000002905D02E4A126802432D4B1A6004E03C
:103980002B4A126882432A4B1A607047C9B2002939
:1039900005D0284A12680243264B1A6004E0254AE3
:1039A00012688243234B1A60704710B40100002252
:1039B00000230020C9B24C09E4B22200012A03D13D
:1039C0000E4C2468230008E0022A03D10E4C246820
:1039D000230002E0184C24682300C9B211F01F0430
:1039E000220033FA02F4E40702D50124200001E0AA
:1039F00000242000C0B210BC704700000038024014
:103A0000083802400438024070380240800E4742B5
:103A10000024F40040787D01FC000020FFFCFF0F33
:103A20003C0E4742400E4742303802404038024088
:103A3000443802402438024074380240C0B2014980
:103A40000860704720000E4280B501214FF480705D
:103A5000FFF79CFF00214FF48070FFF797FF01BD37
:103A600030B40023002244682300764C23400C79B4
:103A70000D6855EA04242343436084682300724C94
:103A800023400C69CD682C438D682C434D7954EA52
:103A9000450423438360C46A230033F470030C7D20
:103AA000641E2243D2B253EA0253C36230BC704751
:103AB000002101600021017100214171002181601C
:103AC0000021C160002101610121017570470021C1
:103AD0005E4A126811005E4A1140026843681A4348
:103AE00083681A43C3681A431143584A11607047E8
:103AF0000021016000214160002181600021C1603E
:103B00007047C9B2002904D0826852F00102826075
:103B100003E082685208520082607047C0B20028F9
:103B200006D04A49096851F40001484A116005E08D
:103B30004649096831F40001444A11607047F0B405
:103B400000250024C9B20A2917DBC66835000726FC
:103B5000B1F10A075FF0030C17FB0CF7BE4034000D
:103B6000A543DBB2B1F10A06032716FB07F613FAE9
:103B700006F634002543C56011E0066935000726C6
:103B8000032711FB07F7BE403400A543DBB2032631
:103B900011FB06F613FA06F6340025430561D2B28E
:103BA000072A15DA466B35001F26571E5FF0050CF5
:103BB00017FB0CF7BE403400A543C9B2561E0527BB
:103BC00016FB07F611FA06F63400254345632FE08D
:103BD000D2B20D2A15DA066B35001F26D71F5FF00B
:103BE000050C17FB0CF7BE403400A543C9B2D61F25
:103BF000052716FB07F611FA06F634002543056380
:103C000016E0C66A35001F26B2F10D075FF0050CFD
:103C100017FB0CF7BE403400A543C9B2B2F10D0644
:103C2000052716FB07F611FA06F634002543C56290
:103C3000F0BC7047816851F0804181607047C06C72
:103C400080B27047FFFEFFFCFDF7FFC00423014078
:103C5000E030FCFF020000201368C9B20B4202D022
:103C60000123180001E000231800C0B270470000D3
:103C7000F0B400220023002400252A00102A4AD292
:103C8000012595402B000D681D402C009C4240D121
:103C9000056803261700FFB27F00BE40B5430560EC
:103CA00005680E791700FFB27F00BE4035430560FE
:103CB0000D79012D02D00D79022D1AD185680326C8
:103CC0001700FFB27F00BE40B543856085684E791E
:103CD0001700FFB27F00BE4035438560456801266E
:103CE0009640B543456045688E799640B6B23543F7
:103CF0004560C56803261700FFB27F00BE40B5438C
:103D0000C560C568CE791700FFB27F00BE4035435D
:103D1000C560521CB2E7F0BC70474FF6FF710160FE
:103D20000021017100214171002181710021C171C7
:103D3000704702000020136989B20B4202D00123B0
:103D4000180001E000231800C0B27047F0B400234F
:103D50000024D2B211F00705EDB2AD0012FA05F55C
:103D60002B0089B2CD1010EB850589B2CE1010EB77
:103D70008606366A0F2711F0070C5FFA8CFC5FEAA3
:103D80008C0C17FA0CF7BE432E6289B2CD1010EBE3
:103D900085052D6A1D432C0089B2CD1010EB8505D9
:103DA0002C62F0BC704700002DE9F04385B00400A0
:103DB0000D005FF00009002600275FF00008A889C9
:103DC0000028208A814639F44059E88850EA0909D8
:103DD000A4F81090A0898146314810EA0909A88802
:103DE000298908436989084350EA0909A4F80C9015
:103DF000A08A814639F44079A88950EA0909A4F8D3
:103E0000149000A8FFF7F5FC2348844202D0234811
:103E1000844202D10398060001E002980600A089BE
:103E2000000408D5192000FB06F029684900B0FB02
:103E3000F1F0070007E0192000FB06F0296889006F
:103E4000B0FBF1F007006420B7FBF0F00001814601
:103E50005FEA1910642101FB10708046A0890004FC
:103E60000AD55FEAC80032306421B0FBF1F010F0EF
:103E7000070050EA090909E05FEA081032306421BE
:103E8000B0FBF1F010F00F0050EA0909A4F8089017
:103E900005B0BDE8F08300000010014000140140AF
:103EA000F3E9FFFF4FF416510160002181800021EA
:103EB000C180002101810C21418100218181704755
:103EC000C9B2002904D0828952F40052828104E0F0
:103ED00082894DF6FF731A40828170478088C00541
:103EE000C00D7047F0B4002300240025002689B2DD
:103EF00040F66A17B94206000F00FFB27F09FFB211
:103F00003B0089B211F01F073C000127A7403D008C
:103F1000012B01D10C3604E0022B01D1103600E058
:103F20001436D2B2002A03D037682F43376002E03C
:103F30003768AF433760F0BC704770B402000023AD
:103F400000250024002089B240F66A16B1420E0016
:103F5000F6B27609F6B2340089B211F01F063500C8
:103F6000012616FA05F5012C02D19689354006E0A6
:103F7000022C02D1168A354001E0968A354089B27A
:103F80000E0AB6B23300012616FA03F31688334040
:103F9000002D04D0002B02D00126300001E00026C5
:103FA0003000C0B270BC704710B40022002389B248
:103FB00040F66A14A14289B20C0A220001249440FE
:103FC00023009BB2DC43048010BC704700220388AE
:103FD0001A00274B98420ED02B4B98420BD0B0F1D1
:103FE000804F08D0234B984205D0234B984202D0F3
:103FF000224B984204D14FF68F731A404B881A43D4
:104000001F4B984207D01F4B984204D04FF6FF43F6
:104010001A400B891A4302804B68C3620B880385E0
:10402000134B984202D0184B984201D18B7A0386E9
:104030000123838270475FF0FF31416000210180DE
:10404000002101810021418000218172704701859A
:1040500082827047C9B2002904D0028852F001025E
:10406000028004E002884FF6FE731A400280704717
:10407000000001400004004000080040000C004027
:1040800000100040001400400004014089B2CA43FF
:104090000282704780B54848006850F47000464975
:1040A00008604648006850F001004449086000205C
:1040B0004349086041480068424908403F49086058
:1040C0004148424908603D48006830F480203B493F
:1040D000086000203E49086000F005F85FF00060CD
:1040E0003C49086001BD82B0002001900020009092
:1040F0003248006850F48030304908602F4800682A
:1041000010F4003000900198401C019000980028A5
:1041100003D10198B0F5A06FF0D128480068800362
:1041200002D50120009001E00020009000980128B5
:104130003ED12948006850F0805027490860274840
:10414000006850F48040254908601D4800681C49FB
:1041500008601B48006850F400401949086018487E
:10416000006850F4A050164908601D4817490860BF
:104170001248006850F08070104908600F480068CD
:104180008001FBD540F20460164908600C480068C5
:10419000800880000A4908600948006850F0020061
:1041A000074908600648006810F00C000828F9D19B
:1041B00002B070470000000088ED00E000380240C7
:1041C00008380240FFFFF6FE103000240438024099
:1041D0000C38024008ED00E040380240007000401A
:1041E000194B4007003C0240816807E002681168F3
:1041F000536889185B18C36008320260C268914234
:10420000F4D04A1C8260087870472DE9FF4D00F118
:104210000801009100270168009A490802EBC101DA
:104220000191B8460021029103910168490800EB11
:10423000C101406800F0010501F10804400804EBE9
:10424000C00631E000A8FFF7CFFF4FFA80FA0AE07E
:1042500000980168081800990290496808180390AE
:10426000009808300090029803998842F0D0401CD2
:10427000029010F801BD47450CD1B44208BF00F0D0
:104280001DF8276805B14F44606800EB0708083443
:104290004745F2D007F801BBBAF1000F0AD51AF171
:1042A000010AE8D14745CDD1B442CBD1304604B064
:1042B000BDE8F08DBAF1010AD5D5F3E7012000F091
:1042C00001B8000080B5C046C046024A110018205F
:1042D000ABBEFBE7260002007B2244617465223AF4
:1042E00022257320253032642E253032642E25306D
:1042F000326420253032643A253032643A25303237
:1043000064222C2254656D70657261747572652229
:104310003A2225302E3166222C2244697374223AC7
:1043200025647D0A0000000010B507497944183162
:10433000064C7C44163404E00A68081D511888476E
:104340000146A142F8D110BD080000003000000075
:10435000EFCDFFFF5C2F01002001002000000000D6
:10436000ABFEFFFF02000000020000004802000058
:1043700028000000000000201D0100004D4F4E00ED
:10438000545545005745440054485500465249008D
:104390005341540053554E004EF68851CEF2000161
:1043A000086840F4700008604FF00070E1EE100AF9
:1043B0007047000000F00BF8002801D0FFF7B4FFB1
:1043C0000020C046C046FEF7DDF900F002F80120EB
:1043D000704700F001B8000007463846FFF772FF4B
:1043E000FBE70000A5A5A5A5A5A5A5A5A5A5A5A52F
:1043F000A5A5A5A5A5A5A5A5427574744368636B7D
:104400005461736B0000000053686F774C656473F0
:104410005461736B00000000014880470148004769
:10442000954000084D4400084D61696E5461736BFE
:1044300000000000484353525F5461736B0000005A
:104440007047FEE7FEE7FEE7FEE77047C046C0465E
:10445000FFF7A2FFFFF7AEFF80B5FEF750FD01BDED
:10446000704700004164635461736B0049444C45DC
:1044700000000000FFF7FEBFFFF7FEBFFFF7FEBF23
:10448000FFF7FEBFFFF7FEBFFFF7FEBFFFF7FEBF60
:10449000FFF7FEBFFFF7FEBFFFF7FEBFFFF7FEBF50
:1044A000FFF7FEBFFFF7FEBFFFF7FEBFFFF7FEBF40
:1044B000FFF7FEBFFFF7FEBFFFF7FEBFFFF7FEBF30
:1044C000FFF7FEBFFFF7FEBFFFF7FEBFFFF7FEBF20
:1044D000FFF7FEBFFFF7FEBFFFF7FEBFFFF7FEBF10
:1044E000FFF7FEBFFFF7FEBFFFF7FEBFFFF7FEBF00
:1044F000FFF7FEBFFFF7FEBFFFF7FEBFFFF7FEBFF0
:10450000FFF7FEBFFFF7FEBFFFF7FEBFFFF7FEBFDF
:10451000FFF7FEBFFFF7FEBFFFF7FEBFFFF7FEBFCF
:10452000FFF7FEBFFFF7FEBFFFF7FEBFFFF7FEBFBF
:10453000FFF7FEBFFFF7FEBFFFF7FEBFFFF7FEBFAF
:10454000FFF7FEBFFFF7FEBFFFF7FEBFFFF7FEBF9F
:10455000FFF7FEBFFFF7FEBFFFF7FEBFFFF7FEBF8F
:10456000FFF7FEBFFFF7FEBFFFF7FEBFFFF7FEBF7F
:10457000FFF7FEBFFFF7FEBFFFF7FEBFFFF7FEBF6F
:10458000FFF7FEBFFFF7FEBFFFF7FEBFFFF7FEBF5F
:10459000FFF7FEBFFFF7FEBFFFF7FEBFFFF7FEBF4F
:1045A000FFF7FEBFFFF7FEBFFFF7FEBFFFF7FEBF3F
:1045B000FFF7FEBFE400F8FFDC00FAFF8100CD004A
:1045C0000F010203040102030406070809F82B0186
:0C45D00000FCAA0380D1F008FCFF00648E
:040000050800444D5E
:00000001FF
